:1000000000000020F5110000F10E0000F10E0000CC
:10001000F10E0000F10E0000F10E0000F10E0000E4
:10002000F10E0000F10E0000F10E0000F10E0000D4
:10003000F10E0000F10E0000F10E0000050F0000AF
:10004000F10E0000F10E0000F10E0000F10E0000B4
:10005000F10E0000F10E0000F10E0000F10E0000A4
:10006000F10E0000F10E0000F10E0000F10E000094
:10007000F10E0000F10E0000F10E0000F10E000084
:10008000F10E0000F10E0000F10E0000F10E000074
:10009000F10E0000F10E0000F10E0000F10E000064
:1000A000F10E0000F10E0000F10E0000F10E000054
:1000B000F10E0000F10E0000F10E0000F10E000044
:1000C000F10E0000F10E0000F10E0000F10E000034
:1000D000F10E0000F10E0000F10E0000F10E000024
:1000E000F10E0000F10E0000F10E0000F10E000014
:1000F000F10E0000F10E0000F10E0000F10E000004
:10010000F10E0000F10E0000F10E0000F10E0000F3
:10011000F10E0000F10E0000F10E0000F10E0000E3
:10012000F10E0000F10E0000F10E0000F10E0000D3
:10013000F10E0000F10E0000F10E0000F10E0000C3
:10014000F10E0000F10E0000F10E0000F10E0000B3
:10015000F10E0000F10E0000F10E0000F10E0000A3
:10016000F10E0000F10E0000F10E0000F10E000093
:10017000F10E0000F10E0000F10E0000F10E000083
:10018000F10E0000F10E0000F10E0000F10E000073
:10019000F10E0000F10E0000F10E0000F10E000063
:1001A000F10E0000F10E0000F10E0000F10E000053
:0C01B000F10E0000F10E0000F10E000046
:10040000FFFFFFFFFFFFFFFFFFFFFFFF7EFBFFFF81
:1004100082B00190019B5A1E0192002BFAD102B0CA
:10042000704700BFF8B542F20E7398424ADC324B77
:100430009842B8BF40F2E7304BDA8B00DDB24FF0A4
:10044000010C2E4EDFF8C0E02D4F87FB0043C41790
:10045000C4EBA30404EB8403A0EB430000B26B1CC9
:100460001EF800007055DBB220B21D46234C002858
:10047000EBD1BCF1000F03D0BF2363556B1CDBB283
:100480000131890099421846A8BFFF2405DB0133DA
:10049000DBB2994234541846F9DA2AB10A44053AD3
:1004A000B35C03F07F03B354164C1448A36843F0C5
:1004B0000103A360102100F029FC636843F00103ED
:1004C0006360F8BD8B00DDB24FF0000C42F20F709C
:1004D000B7E7002802DA404280B2AEE74FEA810374
:1004E000DDB205D1054EC023681C7355C3B2C7E702
:1004F0004FF0000CA5E700BF1AFCFFFF0080FF1FB4
:100500006766666680F00F40B01C000030B50C4B8B
:100510000C4D53F80C0F85B059689A68DB686C462F
:100520000FC4AB6843F00103AB606846102100F0D4
:10053000EDFB6B6843F001036B6005B030BD00BF9D
:10054000B01C000080F00F40064B1A88D20707D578
:100550004AF202614BF28042998100209A817047F1
:1005600001207047002005402DE9F041564C00263F
:1005700001230725C020102103224FF40077A57224
:1005800067602073A173227426816673E673E37239
:100590006374251D95E80F00267000F0EBFA04F156
:1005A000140000F097FA002800F08980626940F298
:1005B00001239A427BD1237FD02B78D194F820203D
:1005C000E37F268103EB022694F81EE0677FFF237A
:1005D000B6B24FF0A00C0F208A2132224FF006084D
:1005E000666084F80A8084F80BC020736173A3737B
:1005F0002374E27395E80F0007EB0E27A684E784C7
:1006000000F0B8FA04F1140000F064FA002856D0A3
:10061000E38C62699A4247D02378A28C626003F12E
:1006200010074FF000080526022010218922E772EA
:10063000A672A4F8088084F80C806073A173E2733A
:10064000214E5F1C95E80F00277000F093FA06F129
:100650001400341D00F03EFA88B3F38C72699A429C
:1006600029D1F37E03F0F003B02B24D106F114005E
:1006700000F030FA18B3F38C72699A4217D1F37E06
:10068000102B14D1F28B48F650139A420FD1B38C31
:1006900073600122B123B272F37294E80F0000F08C
:1006A00069FA4046BDE8F081E37EA12BB4D06FF03B
:1006B0000100BDE8F0816FF00200BDE8F0814FF06D
:1006C000FF30BDE8F08100BF4080FF1F052838B52E
:1006D000144626D00BD9602801D07E2811D101FB09
:1006E00004F000F061FE144900F0B2FE38BD0128AC
:1006F00007D101FB02F000F057FE104900F0A8FE00
:1007000038BD084600F04CFE4FF0874100F0A0FED7
:100710000546204600F048FE0146284600F090FDC0
:1007200038BDA2F1640000FB01F000F03DFE02497B
:1007300000F08EFE38BD00BFCDCCCC3DCDCC4C3EC4
:100740002DE9F04F83B000910192002A00F0A480BF
:10075000DFF87C8298F8002088F80F00022488F8DF
:100760000D40531C9A4CB8F82460C8F8046000216E
:10077000DBB21032212005250F2B88F8003088F8D5
:100780000A5088F80B2088F80E00A8F8081088F89E
:100790000C1004F1040388BF88F800100FCB00F0A0
:1007A000E9F904F1140000F095F9002874D0E38C05
:1007B00062699A427AD1E37E03F0F003B02B75D1DF
:1007C00004F1140000F086F9002865D0E38C62691A
:1007D0009A4266D1E37E03F0F003202B61D1A37F20
:1007E000612B5ED1E17FE27B8A425AD194F820509E
:1007F00094F8210094F8221084F82A5084F82830C4
:1008000084F8292084F82B0084F82C10052524E096
:100810006069B4F826B058454DD1E07E00F0F0098B
:10082000B9F1200F4DD1207F8CF82800657FA07F83
:100830008EF8285087F82800E57F94F820E094F897
:10084000217094F8220086F8285081F828E05FFA99
:100850008AF582F8287083F82800DFF8749109F18E
:10086000140000F037F9AF1C05F1010EEE1C291D34
:10087000AB1D6A1D04EB050C54FA8EFE54FA87F783
:1008800054FA86F654FA81F154FA82F254FA83F358
:1008900005F1070A0028BBD14FF0FF3003B0BDE8D7
:1008A000F08F6FF0020003B0BDE8F08F6FF003002F
:1008B00003B0BDE8F08F83456BD199F81B0000F0C1
:1008C000F009B9F1100F64D100F00F0008EB050139
:1008D0004F386F1CAA1CEB1CB8F824E088F80B00FA
:1008E00098F81CC081F828C058FA87F758FA82F2A5
:1008F00058FA83F30120C8F804E088F80A0098F851
:100900001DE098F81E0098F81F1087F828E02E1DAB
:1009100082F828006C1D83F8281006352D4B98F8B6
:1009200020C098F821E098F8227058FA84F458FA18
:1009300086F658FA85F50FCB86F828C084F828E0AB
:1009400085F8287000F016F9009B03EB43039844E8
:1009500098F82A3098F82B0098F82C40052B0FD0E7
:100960001AD8012B24D100FB04F000F01DFD1A4918
:1009700000F06EFD019B1860002003B0BDE8F08F11
:10098000643C04FB00F000F00FFD144900F060FD32
:10099000F0E76FF0010081E7602B01D07E2B07D1DB
:1009A00000FB04F000F000FD0C4900F051FDE1E710
:1009B00000F0F6FC4FF0874100F04AFD0546204666
:1009C00000F0F2FC0146284600F03AFCD2E700BFF6
:1009D0004080FF1F4480FF1FCDCC4C3ECDCCCC3D92
:1009E00010B5114CA38C636000210122A323E37294
:1009F0002181A272231D0FCB00F0BCF804F114007A
:100A000000F068F868B1E38C62699A4206D1E37E2F
:100A1000A12B14BF6FF00100002010BD6FF001008A
:100A200010BD4FF0FF3010BD4080FF1F30B4254D8A
:100A3000254A264941F23C044FF400702B5943F0FB
:100A400010032B51506310630B6843F080430B601D
:100A50000B6823F000430B600A681C4BD502FBD4E3
:100A60001A6842F000721A601A689401FCD417499F
:100A70000A68164BD001FBD51A68154942F40032BA
:100A80001A601A6842F000521A6059605A680021D0
:100A900022F480526FF060405A60C3F880081961F8
:100AA00099641A6822F080521A601A68D201FCD444
:100AB00006490B68054A13F00063FAD1C2F8003109
:100AC00030BC704700700440009004400040024079
:100AD00002007B01264A136B25499B06FBD5D1F802
:100AE0008020C2F3034270B58271D1F8803013F4D4
:100AF000001FD1F884301ABF23F0604343F0004355
:100B0000C3F38A43036032B3194E851D002108E008
:100B1000D6F888300131E340DBB2914205F8013F5D
:100B200017D001F00303DB00C3F1180411F0FC0F30
:100B300001F003034FEAC303EAD0D6F88C40C3F1B7
:100B4000180324FA03F30131DBB2914205F8013FA7
:100B5000E7D1072A06D8D31D1844C2F108020021A4
:100B600000F0ECFD024B20221A63012070BD00BF93
:100B700000400240F0B585B004AC04E90F003F49E5
:100B800000989DF806400B6A3C4A13F04803FAD1DE
:100B9000C2F800310028D2F8043156DB23F0FF53AD
:100BA00023F4E013C2F80431D2F8043143EA804060
:100BB000C2F80401D2F8003123F40013C2F8003166
:100BC000D2F80031C2F8003174B32C4E0DF1070099
:100BD0000021FF250DE00378D6F80871934027EA3D
:100BE0000C0701313B43A142C6F8083100F1010076
:100BF0001AD001F00302D200C2F1180205FA02FC79
:100C000011F0FC0F1346E646E5D00278D6F80C71D9
:100C100002FA03F327EA0C0701313B43A142C6F86D
:100C20000C3100F10100E4D1144AD2F8003123F470
:100C30007023C2F80031D2F8003143F0406343EA38
:100C40000444C2F8004105B0F0BD03F06043C2F8AF
:100C50000431D2F8043120F000401843C2F80401F6
:100C6000D2F8003123F40013C2F80031D2F8003179
:100C700043F40013C2F80031A6E700BF0040024071
:100C800070B4154D154A164B164E41F23C044FF404
:100C90001070295941F4805129514FF4007190602E
:100CA000D16050601E601A6851040DD442F4804136
:100CB0004FF0384441F001014FF078401960DC609A
:100CC000186170BC1A6070474FF038414FF078429D
:100CD000D9601A6170BC70470070044000C00440C5
:100CE00000C00240000C1F80064B074A1A6040F00B
:100CF00000404FF00042DA621A465863D36A002B74
:100D0000FCDA704700C00240000C1F80CB0770B4B3
:100D10000FD50478344B354A1A6044F000444FF044
:100D20000042DA6201301A465C63D36A002BFCDAB7
:100D300001392D4C2D4B2360052930D84618490820
:100D40000DD00346427813F8020B42EA002242F02B
:100D50001042022962632DD0184601213EE0B042C4
:100D60001BD2214A1446D36A13F0F00FFBD010F8BF
:100D7000025B10F8013C43EA052343F01043636330
:100D80008642A36BEFD841B1174A1046D36A13F0DD
:100D9000F00FFBD00139836BF8D170BC704703466C
:100DA000427813F8025B42EA052242F010424618EC
:100DB0006263032118465A7810F8025B0A4C42EA33
:100DC000052242F01042032962630AD19878DA784A
:100DD00042EA002242F010426263181D8642C0D8E7
:100DE000D2E70221FAE700BF00C00240000C1F80DA
:100DF000074B08491960084A4FF00041D96219466B
:100E00005A63CB6A024A002BFBDA906BC0B2704780
:100E100000C00240000C1F80FF000080CB07F0B52F
:100E200011D52F4B2F4C1C602F4A4FF00044DC6231
:100E30001E465A63431CF26A294D002AFBDAAA6B4C
:100E4000027001391846264C264B236005290BD821
:100E50004D0841D06A00254E6663022DC2F10003A1
:100E6000964609D1666307E0204A62634FF0060E9A
:100E700062636FF0050362630B44C418A04217D28B
:100E8000174A1A4F15460146D36A13F0F00FFBD0EC
:100E90006F63AB6BC3F3072601F8026B8C4201F85A
:100EA000013CF1D8C343234423F001030233184427
:100EB000744484420FD90A4A1546D36A13F0F00FDE
:100EC000FBD0AB6BC3F3072100F8021B844200F890
:100ED000013CF2D8F0BDF0BDAE462B46CCE700BFDA
:100EE00000C00240000C1F80FF000080FFFF009048
:100EF000684620F007018D4601B45DF8040B854675
:100F0000704700BF684620F00701054A8D4601B4CE
:100F100013685DF8040B013313608546704700BF0A
:100F2000E880FF1F88420ED06AB140EA010313F047
:100F3000030F09D1032A07D951F8043B40F8043BB9
:100F4000043A002AF1D17047DB0707D4012A05D9FA
:100F500031F8023B20F8023B023AE5E711F8013B89
:100F600000F8013B013ADFE710B4204C34B939E016
:100F7000002933D1A368002B34D00C342368616876
:100F8000002BF5D08B42A268F7D0002AF5D043EAB7
:100F9000010010F0030F0DD1032A0BD953F8040BF5
:100FA00041F8040B043A002AE7D043EA010010F0AC
:100FB000030FF1D0C00709D4012A07D933F8020B77
:100FC00021F8020B023A002AEFD1D6E713F8010B01
:100FD00001F8010B013A002AE7D1CEE7A268002A06
:100FE000CBD0D4E75DF8044B704700BFFC1C000079
:100FF000104A114BD21A0AD0002013F0030107D176
:10100000032A05D9043A43F8041B002AF5D1704796
:1010100013F0010107D1012A05D0023A23F8021B7F
:10102000002AEAD1F3E7013A03F8010B002AE4D1E0
:10103000EDE700BFF080FF1F3080FF1F4FF0E02181
:101040002DE9F0413B4B3C4A3C48C1F8080D41F2C8
:10105000440400214CF22050394DD8814DF6281817
:101060004FF4107C4FF0020E48F2010744F2D31601
:10107000A3F80E8041F2380019815981A3F804C009
:10108000A3F806E0D9825F801E80155113582D49C0
:1010900043F4F05313508B781A0703D58B7843F041
:1010A00008038B70244A2849284B294841F24404FC
:1010B0004FF08975155141F204060625945944F400
:1010C00080349451146844F4402414608A6C22F0F3
:1010D000807222F4E0628A64CA6C22F0807222F488
:1010E000E062CA641A7A02F0F10242F00402252199
:1010F0001A721D705970DA7802F01F0242F0C002B5
:101100008021DA7001701A7B072102F0FE021A7347
:1011100019711A79002142F040021A711A46597168
:101120009379DB06FCD5094A937913F00C0FFBD1B8
:10113000BDE8F08100200540007004400000000080
:101140000000330100D007400090044000400640FA
:101150000050064080F31188704700BFF0B51D4A6B
:101160001D4B92F805E01D4D1D4F1E4C1E481F499A
:101170001F4E0EF0E00E82F805E092F804E00EF04B
:10118000F80E82F804E01A7802F08C0242F0500265
:101190001A705A7802F09C0242F040025A7093F89A
:1011A00002E000220EF0E60E83F802E03A7085F8C5
:1011B000492385F81423636923F0030363614369BA
:1011C000072423F0C00343614E600C6082F3118852
:1011D00062B6F0BD00F0074000D0074000E100E03B
:1011E00000E0074040F00F4080F00F4010E000E0CA
:1011F0003F19010008B5FFF721FF0C4B18460028E6
:1012000007D0854681B04FF000006FEA00000090E3
:1012100001B0FFF7EDFEFFF7A7FEFFF79FFF044BBE
:1012200000221A6000F0D8FAFEE700BF000000209C
:10123000E880FF1F80F0004002E000BF81F0004125
:1012400042001FBF5FEA410392EA030F7FEA226C6C
:101250007FEA236C6AD04FEA1262D2EB1363C1BFFC
:10126000D218414048404140B8BF5B42192B88BF6B
:10127000704710F0004F40F4000020F07F4018BF8E
:10128000404211F0004F41F4000121F07F4118BFAE
:10129000494292EA030F3FD0A2F1010241FA03FC56
:1012A00010EB0C00C3F1200301FA03F100F000433E
:1012B00002D5494260EB4000B0F5000F13D3B0F106
:1012C000807F06D340084FEA310102F10102FE2A75
:1012D00051D2B1F1004F40EBC25008BF20F00100E5
:1012E00040EA03007047490040EB000010F4000F93
:1012F000A2F10102EDD1B0FA80FCACF1080CB2EB26
:101300000C0200FA0CF0AABF00EBC2505242184384
:10131000BCBFD0401843704792F0000F81F4000129
:1013200006BF80F400000132013BB5E74FEA4103FC
:101330007FEA226C18BF7FEA236C21D092EA030F68
:1013400004D092F0000F08BF0846704790EA010FE2
:101350001CBF0020704712F07F4F04D1400028BF0F
:1013600040F00040704712F100723CBF00F50000F1
:10137000704700F0004343F0FE4040F40000704727
:101380007FEA226216BF08467FEA236301464202D3
:1013900006BF5FEA412390EA010F40F480007047E6
:1013A0004FF0000304E000BF10F0004348BF40428C
:1013B0005FEA000C08BF704743F0964301464FF0C8
:1013C00000001CE050EA010208BF70474FF0000324
:1013D0000AE000BF50EA010208BF704711F0004365
:1013E00002D5404261EB41015FEA010C02BF844635
:1013F0000146002043F0B64308BFA3F18053A3F594
:101400000003BCFA8CF2083AA3EBC25310DB01FADA
:1014100002FC634400FA02FCC2F12002BCF1004F5E
:1014200020FA02F243EB020008BF20F001007047EF
:1014300002F1200201FA02FCC2F1200250EA4C0043
:1014400021FA02F243EB020008BF20EADC70704789
:101450004FF0FF0C1CEAD0521EBF1CEAD15392EA97
:101460000C0F93EA0C0F6FD01A4480EA010C400273
:1014700018BF5FEA41211ED04FF0006343EA5010CD
:1014800043EA5111A0FB01310CF00040B1F5000F0F
:101490003EBF490041EAD3715B0040EA010062F1BE
:1014A0007F02FD2A1DD8B3F1004F40EBC25008BFA8
:1014B00020F00100704790F0000F0CF0004C08BFC6
:1014C00049024CEA502040EA51207F3AC2BFD2F193
:1014D000FF0340EAC250704740F400004FF00003A1
:1014E000013A5DDC12F1190FDCBF00F000407047DB
:1014F000C2F10002410021FA02F1C2F1200200FA19
:1015000002FC5FEA310040F1000053EA4C0308BFDF
:1015100020EADC70704792F0000F00F0004C02BF30
:10152000400010F4000F013AF9D040EA0C0093F0AB
:10153000000F01F0004C02BF490011F4000F013B05
:10154000F9D041EA0C018FE70CEAD15392EA0C0F73
:1015500018BF93EA0C0F0AD030F0004C18BF31F0DE
:10156000004CD8D180EA010000F00040704790F0B4
:10157000000F17BF90F0004F084691F0000F91F058
:10158000004F14D092EA0C0F01D142020FD193EA1E
:101590000C0F03D14B0218BF084608D180EA0100A6
:1015A00000F0004040F0FE4040F40000704740F082
:1015B000FE4040F4400070474FF0FF0C1CEAD05250
:1015C0001EBF1CEAD15392EA0C0F93EA0C0F69D0AC
:1015D000A2EB030280EA010C49024FEA402037D017
:1015E0004FF0805343EA111143EA10130CF000400E
:1015F0008B4238BF5B0042F17D024FF4000C8B42FE
:1016000024BF5B1A40EA0C00B3EB510F24BFA3EBDD
:10161000510340EA5C00B3EB910F24BFA3EB9103AD
:1016200040EA9C00B3EBD10F24BFA3EBD10340EA07
:10163000DC001B0118BF5FEA1C1CE0D1FD2A3FF64D
:1016400050AF8B4240EBC25008BF20F00100704702
:101650000CF0004C4CEA50207F32C2BFD2F1FF03A5
:1016600040EAC250704740F400004FF00003013AD6
:1016700037E792F0000F00F0004C02BF400010F47A
:10168000000F013AF9D040EA0C0093F0000F01F08E
:10169000004C02BF490011F4000F013BF9D041EAB0
:1016A0000C0195E70CEAD15392EA0C0F08D14202E3
:1016B0007FF47DAF93EA0C0F7FF470AF084676E7B6
:1016C00093EA0C0F04D14B023FF44CAF08466EE78F
:1016D00030F0004C18BF31F0004CCAD130F000425D
:1016E0007FF45CAF31F000437FF43CAF5FE700BFB5
:1016F0004FEA4002B2F1FE4F0FD34FF09E03B3EB1F
:1017000012620DD94FEA002343F0004310F0004F5E
:1017100023FA02F018BF404270474FF000007047B4
:1017200012F1610F01D1420205D110F0004008BF53
:101730006FF0004070474FF00000704770B48407AE
:1017400046D0541E002A41D0CDB2034602E0621EAC
:10175000E4B3144603F8015B9A07F8D1032C2ED9A1
:10176000CDB245EA05250F2C45EA054519D903F107
:1017700010022646103E0F2E42F8105C42F80C5C18
:1017800042F8085C42F8045C02F11002F2D8A4F1BD
:10179000100222F00F0204F00F041032032C134445
:1017A0000DD91E462246043A032A46F8045BFAD8AD
:1017B000221F22F003020432134404F003042CB16C
:1017C000C9B21C4403F8011BA342FBD170BC704793
:1017D00014460346C2E700BF934B944C944D954E7C
:1017E000DFF864824FF4807280B51A606369924FAB
:1017F00043F001036361636843F001036360FFF733
:101800003FFAFEF783FEFFF711F9FEF7ADFE2B68F6
:1018100032683168A960184433686A609B1A0A2BE1
:101820002860844900F25D813368AA688149DFF845
:1018300000929B1A642B00F2DF81786ADFF8F8913E
:10184000FFF756FF80B201B242F20E73994200F3E5
:10185000CE817A4B9942B8BF40F2E73080F2F581F1
:1018600001B24FF0010C0022DFF8E0E100E001B22C
:101870008EFB0130CB17C3EBA00000EB8003A1EB84
:10188000430109B2531C18F80110B954DBB280B2FD
:101890001A4669490028EAD1BCF1000F04D001338F
:1018A000BF20DBB288541A46042B06DCFF2101332B
:1018B000DBB2042BB9541A46F9D9A368DFF8789142
:1018C00043F00103A36048461021FFF71FFA636845
:1018D0005B49786943F001036360FFF7B9FDFFF7E7
:1018E00007FF80B201B242F20E73994240F3758154
:1018F0004FF0000C42F20F710422DFF850E100E0DB
:1019000001B28EFB0130CB17C3EBA00000EB8003CC
:10191000A1EB430109B2531C18F80110B954DBB212
:1019200080B21A4644490028EAD1BCF1000F04D025
:101930000133BF20DBB288541A46082B06DCFF2196
:101940000133DBB2082BB9541A46F9D9A2687B7966
:10195000DFF8E49042F00102A26003F07F0310215F
:1019600048467B71FFF7D2F96368F86943F00103D9
:101970006360FFF7BDFE80B201B242F20E7399427E
:1019800040F321814FF0000C42F20F710822DFF882
:10199000BCE000E001B28EFB0130CB17C3EBA0002E
:1019A00000EB8003A1EB430109B2531C18F80110AE
:1019B000B954DBB280B21A461F490028EAD1BCF103
:1019C000000F04D00133BF20DBB288541A460C2B21
:1019D00006DCFF210133DBB20C2BB9541A46F9D9CE
:1019E000A368DFF8549043F00103A3604846102138
:1019F000FFF78CF963681349F86A43F001036360E9
:101A0000FFF726FDFFF774FE80B201B242F20E73BB
:101A1000994240F3CE804FF0000C42F20F710C223D
:101A2000DFF828E015E000BF00B0044080F00F4070
:101A30003080FF1FE880FF1F0080FF1F1AFCFFFFA0
:101A400000002041E17A143EB01C00006766666623
:101A500001B28EFB0130CB17C3EBA00000EB80037B
:101A6000A1EB430109B2531C18F80110B954DBB2C1
:101A700080B21A4684490028EAD1BCF1000F04D094
:101A80000133BF20DBB288541A46102B06DCFF213D
:101A90000133DBB2102BB9541A46F9D9A2687B7B0B
:101AA000794842F0010203F07F03A26010217B73AA
:101AB000FFF72CF9636843F0010363602B684BB9AF
:101AC000724B1A88D20705D54AF202614BF2804266
:101AD00099819A816A6833686D499B1A0A2B7FF64F
:101AE000A3AE09686B4A7B696960722005213B617E
:101AF000FEF726FE2B683969034478692B60FFF7EF
:101B00009FFB4FF07C51FFF7A3FC634AFB697861B0
:101B100003210120BB61FEF713FE2B685F490344DC
:101B2000F8692B60FFF794FC4FF08441FFF788FBC6
:101B3000B969FFF785FB4FF07C51FFF789FC584AE4
:101B40007B6AF861012163203B62FEF7F9FD2B6897
:101B500052490344786A2B60FFF77AFC4FF08441C6
:101B6000FFF76EFB396AFFF76BFB4FF07C51FFF715
:101B70006FFCFB6A786202214A4ABB620B20FEF7C7
:101B8000DFFD2B68484A034401210A202B60FEF741
:101B9000D7FD2B68E9680344F86A2B60FFF74EFB1A
:101BA000B96AFFF74DFB4FF07C51FFF751FCF8622B
:101BB0003AE63E4B9942B8BF40F2E73027DA01B22D
:101BC0004FF0010C2BE7394B9942B8BF40F2E73098
:101BD00029DA01B24FF0010CD8E6344B9942B8BF74
:101BE00040F2E7303DDA01B24FF0010C84E64FF0ED
:101BF000000C42F20F7136E60B68C9F80830FEF7A8
:101C0000EFFED9F800301844C9F8000015E60029A5
:101C100002DA404280B2D2E788B9C0230D2289F8A7
:101C20000C30134633E7002902DA404280B2D0E795
:101C300040B9C023092289F808301346C9E64FF09D
:101C4000000CECE64FF0000CA0E6002902DA40425E
:101C500080B205E688B9C023012289F80030134616
:101C600024E6002902DA404280B2BCE740B9C02332
:101C7000052289F80430134661E64FF0000CF2E5C6
:101C80004FF0000C38E600BF0080FF1F0020054029
:101C9000E880FF1F1480FF1F1C80FF1F6666E63F61
:101CA0002480FF1F2C80FF1F3C80FF1F1AFCFFFFBA
:101CB000C0F9A4B0999282F880900000FFFFFFFF66
:0C1CC000FFFFFFFFFFFFFFFFFFFFFFFF24
:101CCC00FFFFFFFFFFFFFFFFFFFFFFFFFFFFFFFF18
:101CDC00003C1C46003C1C46003C1C46003C1C4680
:101CEC00003C1C46003C1C46003C1C46003C1C4670
:101CFC00CC1C00000080FF1F30000000FC1C00000A
:101D0C0000000020000000000000000000000000A7
:041D1C0000000000C3
:04000003000011F5F3
:00000001FF
